:020000040800F2
:1000000000500020ED0200083F0300084B030008E9
:1000100051030008570300085D03000800000000BA
:100020000000000000000000000000006303000862
:100030006F030008000000007B030008890300082C
:100040003D0300083D0300083D0300083D03000890
:100050003D0300083D030008A5030008B1030008A4
:10006000BD030008C90300083D0300083D03000864
:100070003D0300083D0300083D0300083D03000860
:100080003D0300083D0300083D0300083D03000850
:100090003D0300083D0300083D0300083D03000840
:1000A0003D0300083D0300083D0300083D03000830
:1000B0003D0300083D0300083D0300083D03000820
:1000C0003D0300083D0300083D0300083D03000810
:1000D0003D0300083D0300083D0300083D03000800
:1000E0003D0300083D0300083D0300080000000038
:1000F0000000000000000000000000000000000000
:0C01000000000000000000005FF808F1A3
:10010C0010B5054C237833B9044B13B10448AFF345
:10011C0000800123237010BD14000020000000009B
:10012C002C06000808B5034B1BB103490348AFF379
:10013C00008008BD00000000180000202C060008FC
:10014C0080B400AF0D4A0D4B9B6943F010039361D3
:10015C000B4A0B4B5B6823F440135360084A084B63
:10016C005B6843F400135360054A054B5B6823F44A
:10017C004003536000BFBD4680BC70470010024076
:10018C000010014080B400AF00BFBD4680BC70477A
:10019C0080B483B000AF03463960FB7197F9073028
:1001AC00002B0BDA0D49FB7903F00F03043B3A6883
:1001BC00D2B21201D2B20B441A7609E0084997F96F
:1001CC0007303A68D2B21201D2B20B4483F8002342
:1001DC0000BF0C37BD4680BC704700BF00ED00E08F
:1001EC0000E100E080B582B000AF78607B68B3F1CD
:1001FC00807F01D3012311E00A4A7B6823F07F43FF
:10020C00013B53600F214FF0FF30FFF7C1FF054B4F
:10021C0000229A60034B07221A6000231846083705
:10022C00BD4680BD10E000E080B485B000AF7860C2
:10023C00074B1B68FB6000BF054B1A68FB68D21AA2
:10024C007B689A42F8D300BF1437BD4680BC704718
:10025C003000002080B582B000AF00F0E9F80E4B02
:10026C001B680E4A934200D0FEE70B4B1B680C4AEE
:10027C00A2FB03239B091846FFF7B4FF78607B6849
:10028C00002B00D0FEE700214FF0FF30FFF780FF7E
:10029C0000BF0837BD4680BD0000002000127A0068
:1002AC00D34D621080B500AFFFF7D4FFFFF748FFC6
:1002BC00FFF768FF62B6094A084BDB6843F400534A
:1002CC00D3601E20FFF7B0FF044A044BDB6823F415
:1002DC000053D3601E20FFF7A7FFECE7001001408E
:1002EC00DFF834D0002103E00C4B5B584350043151
:1002FC000B480C4B42189A42F6D30B4A02E00023EF
:10030C0042F8043B094B9A42F9D300F05DF800F037
:10031C0063F9FFF7C7FF7047005000204C06000838
:10032C0000000020140000201400002034000020E5
:10033C00FEE780B400AF00BFBD4680BC704780B400
:10034C0000AFFEE780B400AFFEE780B400AFFEE77D
:10035C0080B400AFFEE780B400AF00BFBD4680BCE8
:10036C00704780B400AF00BFBD4680BC704780B4FE
:10037C0000AF00BFBD4680BC7047000080B400AF2A
:10038C00044B1B680133034A136000BFBD4680BC9D
:10039C00704700BF3000002080B400AF00BFBD46E6
:1003AC0080BC704780B400AF00BFBD4680BC7047B6
:1003BC0080B400AF00BFBD4680BC704780B400AFB6
:1003CC0000BFBD4680BC704780B500AF154A154BC9
:1003DC001B6843F0010313601249124B5A68124B0D
:1003EC0013404B600F4A0F4B1B6823F0847323F4AC
:1003FC00803313600B4A0B4B1B6823F48023136070
:10040C00084A084B5B6823F4FE035360054B4FF41A
:10041C001F029A6000F078F8044B4FF000629A606B
:10042C0000BF80BD001002400000FFF800ED00E0AE
:10043C0080B485B000AF0023FB600023BB600023B9
:10044C007B602C4B5B6803F00C03FB60FB68042B9C
:10045C0007D0082B09D0002B33D1274B274A1A6021
:10046C0033E0254B254A1A602FE0224B5B6803F4DE
:10047C007013BB601F4B5B6803F480337B60BB68FD
:10048C009B0C0233BB607B68002B06D1BB681C4AFB
:10049C0002FB03F3184A136017E0164B5B6803F476
:1004AC000033002B06D0BB68154A02FB03F3124A3B
:1004BC0013600AE0BB68114A02FB03F30E4A136097
:1004CC0003E00D4B0D4A1A6000BF0A4B5B681B0919
:1004DC0003F00F030B4AD35CDBB2FB60064B1A68CC
:1004EC00FB6822FA03F3044A136000BF1437BD46BD
:1004FC0080BC7047001002400000002000127A00FF
:10050C0000093D000400002080B500AF00F002F8A7
:10051C0000BF80BD80B483B000AF00237B6000239C
:10052C003B602B4A2A4B1B6843F480331360284BE7
:10053C001B6803F400333B607B6801337B603B68D2
:10054C00002B03D17B68B3F5A06FF0D1204B1B6857
:10055C0003F40033002B02D001233B6001E00023A5
:10056C003B603B68012B2ED11A4A1A4B1B6843F097
:10057C0010031360174A174B1B6823F00303136017
:10058C00144A144B1B681360114A114B5B6853607F
:10059C000F4A0F4B5B6853600D4A0D4B5B68536001
:1005AC000B4A0B4B5B6823F003035360084A084B60
:1005BC005B6843F00103536000BF054B5B6803F0BD
:1005CC000C03042BF9D100BF0C37BD4680BC70471F
:1005DC00001002400020024070B500250C4E0D4C5E
:1005EC00A41BA410A54209D100F01AF800250A4E4C
:1005FC000A4CA41BA410A54205D170BD56F8253099
:10060C0098470135EEE756F8253098470135F2E763
:10061C004406000844060008440600084806000882
:10062C00F8B500BFF8BC08BC9E467047F8B500BFD3
:08063C00F8BC08BC9E467047A3
:040644003101000878
:040648000D01000898
:10064C0000127A0000000000000000000102030408
:04065C00060708097C
:04000005080002ED00
:00000001FF
